:100000000C946B080C94B2080C94B2080C94B208CF
:100010000C94B2080C94B2080C94B2080C94B20878
:100020000C94B2080C94B2080C94D52D0C94A72E05
:100030000C942F240C94B2080C94B2080C94B208BF
:100040000C94B2080C94B2080C94B2080C94B20848
:100050000C94B2080C9497240C94B2080C94B20837
:100060000C94B2080C94B2080C94B2080C94B20828
:100070000C94B2080C94B2080C94B2080C94B20818
:100080000C94B2080C94B2080C94B2080C94B20808
:100090000C94B2080C94B2080C94B2080C94B208F8
:1000A0000C94B2080C94B2080C94B2081F0A210AEE
:1000B0002C0A230A250A270A290A2B0A2E0A300AA3
:1000C000320A3D0A340A360A380A3A0A3C0A3F0A1A
:1000D000A219A219D419D419121A321ABB1BBB1BAC
:1000E000741ABB1B151B151B871B901BBB1BB41B5A
:1000F000221B221B221B221B221B221B221B221B18
:10010000221B221B221B221B221B221B221B221B07
:10011000331B411B481B4F1B591B4A1C4A1C5C1CB0
:100120005C1C531C5C1C5C1C5C1C4A1C4A1C581C40
:100130005C1C5C1C581C142F3B2F2D303B2F2D308A
:10014000872FAA2F2D3000300F3029003A003B00B6
:100150003C003D003E003F004000410042004300A3
:100160004400450046004700480035001E001F00BF
:100170002000210022002300240025002600270063
:100180002D002E002A002A004A002B000000140037
:100190001A000800150017001C0018000C001200BF
:1001A00013002F00300031004B000151000004000B
:1001B0001600070009000A000B000D000E000F00DA
:1001C00033003400280000004E00E100E1001D0073
:1001D0001B00060019000500110010003600370052
:1001E00038000000E50052004D00E000E300000090
:1001F000E2002C0000002C0000002C000000E600B3
:100200000151E400500051004F00010001000100C5
:1002100001000100010001000100010001000100D6
:1002200001000100010001000100010001000100C6
:1002300001000100010001000100010001000100B6
:10024000010001004C004C00010001000000AC0066
:10025000AE00AB00010001000100010052000100EE
:100260000100010001000100010001000000010087
:1002700001000100010001000100500051004F0089
:100280000100010001000000010001000100BF5C4D
:10029000BE5CBD5CC05C010001000100010001000A
:1002A0000100000001000100010001000100000048
:1002B0000100010000000100000001000000010039
:1002C000005C01000100010001000100013002306A
:1002D0000100010001000100010001000100010016
:1002E0000100010001000100010001000100010006
:1002F00001000100010001000100010001000100F6
:1003000001000100010001000100010000000100E6
:1003100001000100010001000100010001000100D5
:1003200001000100010001000100010000000100C6
:1003300001000100010001000100010001000100B5
:1003400001000100010000000100010001000100A6
:100350000100010001000100010001000100010095
:100360000100000001000100010001000100000087
:100370000100010000000100000001000000010078
:100380000100010001000100010001000100010065
:100390000100010001000100010001000100010055
:1003A0000100010001000100010001000100010045
:1003B0000100010001000100010001000100010035
:1003C0000100010001000100010001000000010026
:1003D0000100010001000100010001000100010015
:1003E0000100010001000100010001000000010006
:1003F00001000100010001000100010001000100F5
:1004000001000100010000000100010001000100E5
:1004100001000100010001000100010001000100D4
:1004200001000000010001000100010001000000C6
:1004300001000100000001000000010000000100B7
:1004400001000100010001000100010001000100A4
:100450000100010001000100010001000100010094
:100460000100010001000100010001000100010084
:100470000100010001000100010001000100010074
:100480000100010001000100010001000000010065
:100490000100010001000100010001000100010054
:1004A0000100010001000100010001000000010045
:1004B0000100010001000100010001000100010034
:1004C0000100010001000000010001000100010025
:1004D0000100010001000100010001000100010014
:1004E0000100000001000100010001000100000006
:1004F00001000100000001000000010000000100F7
:1005000001000100010001000100010001000100E3
:1005100001000100010001000100010001000100D3
:1005200001000100010001000100010001000100C3
:1005300001000100010001000100010001000100B3
:1005400001000100010001000100010000000100A4
:100550000100010001000100010001000100010093
:100560000100010001000100010001000000010084
:100570000100010001000100010001000100010073
:100580000100010001000000010001000100010064
:100590000100010001000100010001000100010053
:1005A0000100000001000100010001000100000045
:1005B0000100010000000100000001000000010036
:1005C0000100010001000100010001000100010023
:1005D0000100010001000100010001000100010013
:1005E0000100010001000100010001000100010003
:1005F00001000100010001000100010001000100F3
:1006000001000100010001000100010000000100E3
:1006100001000100010001000100010001000100D2
:1006200001000100010001000100010000000100C3
:1006300001000100010001000100010001000100B2
:1006400001000100010000000100010001000100A3
:100650000100010001000100010001000100010092
:100660000100000001000100010001000100000084
:100670000100010000000100000001000000010075
:100680000100010001000100010001000100010062
:100690000100010001000100010001000100010052
:1006A0000100010001000100010001000100010042
:1006B0000100010001000100010001000100010032
:1006C0000100010001000100010001000000010023
:1006D0000100010001000100010001000100010012
:1006E0000100010001000100010001000000010003
:1006F00001000100010001000100010001000100F2
:1007000001000100010000000100010001000100E2
:1007100001000100010001000100010001000100D1
:1007200001000000010001000100010001000000C3
:1007300001000100000001000000010000000100B4
:1007400001000100010001000100010001000100A1
:100750000100010001000100010001000100010091
:100760000100010001000100010001000100010081
:100770000100010001000100010001000100010071
:100780000100010001000100010001000000010062
:100790000100010001000100010001000100010051
:1007A0000100010001000100010001000000010042
:1007B0000100010001000100010001000100010031
:1007C0000100010001000000010001000100010022
:1007D0000100010001000100010001000100010011
:1007E0000100000001000100010001000100000003
:1007F00001000100000001000000010000000100F4
:1008000001000100010001000100010001000100E0
:1008100001000100010001000100010001000100D0
:1008200001000100010001000100010001000100C0
:1008300001000100010001000100010001000100B0
:1008400001000100010001000100010000000100A1
:100850000100010001000100010001000100010090
:100860000100010001000100010001000000010081
:100870000100010001000100010001000100010070
:100880000100010001000000010001000100010061
:100890000100010001000100010001000100010050
:1008A0000100000001000100010001000100000042
:1008B0000100010000000100000001000000010033
:1008C0000100010001000100010001000100010020
:1008D0000100010001000100010001000100010010
:1008E0000100010001000100010001000100010000
:1008F00001000100010001000100010001000100F0
:1009000001000100010001000100010000000100E0
:1009100001000100010001000100010001000100CF
:1009200001000100010001000100010000000100C0
:1009300001000100010001000100010001000100AF
:1009400001000100010000000100010001000100A0
:10095000010001000100010001000100010001008F
:100960000100000001000100010001000100000081
:100970000100010000000100000001000000010072
:10098000010001000100010001000100010001005F
:10099000010001000100010001000100010001004F
:1009A000010001000100010001000100010001003F
:1009B000010001000100010001000100010001002F
:1009C0000100010001000100010001000000010020
:1009D000010001000100010001000100010001000F
:1009E0000100010001000100010001000000010000
:1009F00001000100010001000100010001000100EF
:100A000001000100010000000100010001000100DF
:100A100001000100010001000100010001000100CE
:100A200001000000010001000100010001000000C0
:100A300001000100000001000000010000000100B1
:100A4000010001000100010001000100010001009E
:100A5000010001000100010001000100010001008E
:100A6000010001000100010001000100010001007E
:100A7000010001000100010001000100010001006E
:100A8000010001000100010001000100000001005F
:100A9000010001000100010001000100010001004E
:100AA000010001000100010001000100000001003F
:100AB000010001000100010001000100010001002E
:100AC000010001000100000001000100010001001F
:100AD000010001000100010001000100010001000E
:100AE0000100000001000100010001000100000000
:100AF00001000100000001000000010000000100F1
:100B000001000100010001000100010001000100DD
:100B100001000100010001000100010001000100CD
:100B200001000100010001000100010001000100BD
:100B300001000100010001000100010001000100AD
:100B4000010001000100010001000100000001009E
:100B5000010001000100010001000100010001008D
:100B6000010001000100010001000100000001007E
:100B7000010001000100010001000100010001006D
:100B8000010001000100000001000100010001005E
:100B9000010001000100010001000100010001004D
:100BA000010000000100010001000100010000003F
:100BB0000100010000000100000001000000010030
:100BC000010001000100010001000100010001001D
:100BD000010001000100010001000100010001000D
:100BE00001000100010001000100010001000100FD
:100BF00001000100010001000100010001000100ED
:100C000001000100010001000100010000000100DD
:100C100001000100010001000100010001000100CC
:100C200001000100010001000100010000000100BD
:100C300001000100010001000100010001000100AC
:100C4000010001000100000001000100010001009D
:100C5000010001000100010001000100010001008C
:100C6000010000000100010001000100010000007E
:100C7000010001000000010000000100000001006F
:100C8000010001000100010001000100010001005C
:100C9000010001000100010001000100010001004C
:100CA000010001000100010001000100010001003C
:100CB000010001000100010001000100010001002C
:100CC000010001000100010001000100000001001D
:100CD000010001000100010001000100010001000C
:100CE00001000100010001000100010000000100FD
:100CF00001000100010001000100010001000100EC
:100D000001000100010000000100010001000100DC
:100D100001000100010001000100010001000100CB
:100D200001000000010001000100010001000000BD
:100D300001000100000001000000010000000100AE
:100D40000100010001000100010000047F3F1F6459
:100D50003214643214783C1E1E140A052223252600
:100D600028292A2C2D2F3032333536383A3B3D3E58
:100D70004042434547494A4C4E5051535557595AA2
:100D80005C5E6062646668696B6D6F7173757779BC
:100D90007B7D7F81838587898A8C8E9092949698BB
:100DA0009A9C9E9FA1A3A5A7A8AAACAEAFB1B3B4CD
:100DB000B6B8B9BBBCBEBFC1C2C3C5C6C7C9CACB22
:100DC000CCCDCED0D1D2D2D3D4D5D6D7D7D8D9D9ED
:100DD000DADADBDBDBDCDCDCDCDCDDDDDDDDDCDC56
:100DE000DCDCDCDBDBDBDADAD9D9D8D7D7D6D5D473
:100DF000D3D2D2D1D0CECDCCCBCAC9C7C6C5C3C23F
:100E0000C1BFBEBCBBB9B8B6B4B3B1AFAEACAAA893
:100E1000A7A5A3A19F9E9C9A98969492908E8C8A47
:100E200089878583817F7D7B79777573716F6D6B22
:100E30006968666462605E5C5A5957555351504EFA
:100E40004C4A4947454342403E3D3B3A38363533AC
:100E500032302F2D2C2A292826252322FFAA7F5520
:100E6000400000000000000000000001010101013D
:100E70000101010102020202020202020303030352
:100E8000030303040404040405050505050606061A
:100E9000060607070707080808080909090A0A0AD1
:100EA0000B0B0B0C0C0C0D0D0D0E0E0E0F0F10106E
:100EB00010111112121313141415151616171718F2
:100EC0001819191A1A1B1C1C1D1D1E1F1F20212159
:100ED00022232324252526272828292A2B2C2C2D9C
:100EE0002E2F30313132333435363738393A3B3CB6
:100EF0003D3E3F404142434445464748494B4C4DA7
:100F00004E4F50525354555758595A5C5D5E60616C
:100F100063646567686A6B6C6E6F717274767779FB
:100F20007A7C7D7F8182848687898B8D8E90929456
:100F30009597999B9D9FA1A2A4A6A8AAACAEB0B27A
:100F4000B4B6B9BBBDBFC1C3C5C8CACCCED0D3D55A
:100F5000D7DADCDEE1E3E6E8EAEDEFF2F4F7F9FCFC
:100F6000FF0403300000000C034B00420044003734
:100F700000350000000E0364007A00740065006311
:100F800000680000000403090409023B000201009C
:100F9000A0FA090400000103010100092111010068
:100FA000012240000705810308000A09040100012D
:100FB0000300000009211101000122C00007058281
:100FC0000320000A1201100100000008EDFE60601D
:100FD00001000102030105010902A10185020901C5
:100FE000A1000509190129051500250195057501BF
:100FF00081029501750381010501093009311581CF
:10100000257F95027508810609381581257F950190
:1010100075088106050C0A38021581257F95017532
:10102000088106C0C005010980A1018503160100E1
:101030002603001A81002A8300751095018100C0E3
:10104000050C0901A1018504160100269C021A0164
:10105000002A9C02751095018100C005010906A1B6
:10106000018505050719E029E71500250195087593
:10107000018102050819012905950575019102955F
:1010800001750391010507190029EF150025019548
:10109000F075018102C005010906A101050719E0EB
:1010A00029E715002501950875018102950175084C
:1010B0008101050819012905950575019102950120
:1010C000750391010507190029FF150026FF0095FA
:1010D0000675088100C011241FBECFEFDAE0DEBF25
:1010E000CDBF04B603FE27C08091BC029091BD0223
:1010F000A091BE02B091BF028730904BA740B04B89
:10110000D1F41092BC021092BD021092BE02109255
:10111000BF0214BE84B7877F84BF0FB6F894A8952A
:1011200080916000886180936000109260000FBE23
:10113000E0E0F8E3099511E0A0E0B1E0E4E6F2E6D2
:1011400002C005900D92AE35B107D9F722E0AEE5A9
:10115000B1E001C01D92AC3BB207E1F70E94F72A53
:101160000C9430310C9400000C94BB080C94BC0817
:1011700080E090E008950895089581E0089581FF4A
:1011800002C0229A01C022982A98089581E0089509
:101190000C94BD081F93CF93DF9300D000D01F9213
:1011A000CDB7DEB749835A8320919E0189819A8108
:1011B000211112C0662349F00E946F21182F682F59
:1011C00089819A810E94142103C00E944321182F13
:1011D00069817A81812F04C00E946F2169817A819F
:1011E0000F900F900F900F900F90DF91CF911F9164
:1011F0000C94AD0BFC01408151816281738184812B
:101200000C94CA080C94B608E82FE295EF70F0E051
:1012100032A1282F2F7081E090E001C0880F2A951D
:10122000EAF78095832382A30895CF92DF92EF920D
:10123000FF92863030F4811105C0909180009F7D2F
:1012400004C085E090918000906290938000282FE8
:1012500030E0AFEFBFEF0E94C13025E030E040E06A
:1012600050E00E9499302C3784E138074105510540
:1012700030F4C90169E070E00E94713029C0DA01E0
:10128000C9018A50974DAF4FBF4F6627782F892FDE
:101290009A2F25EF38E241E050E00E949930690131
:1012A0007A01CA01B9010E9461309B01AC01C701FA
:1012B000B6010E946130BB27A92F982F872F009776
:1012C00021E0A207B10511F0BC0102C06FEF7FEF72
:1012D00070938B0060938A00FF90EF90DF90CF9027
:1012E0000895269A86E30E94040982E28093800092
:1012F00089E1809381008FEF9FEF90938700809327
:1013000086000C9477280E949F22811102C00E94BF
:101310002C230E9471090C94B4080C94BF080C94FF
:101320008D0908950E943A1C0E9491092FEF84E3D1
:101330009CE0215080409040E1F700C000000C94F8
:10134000BD240F931F93CF93DF938C010E94FA0863
:10135000EC01B8010E94C808882309F4F7C1B8015C
:10136000CE010E940B16882309F4F0C1CA3CFCE5AB
:10137000DF0741F4F8018281882309F4E7C10E9464
:101380004912E4C1CB3C8CE5D80708F012C1C33C3C
:101390009CE5D90761F4F8018281882309F4D6C15C
:1013A0000E94EF218272E1F00E947414CFC1C43C0C
:1013B000ECE5DE07C0F0C63C9CE5D90709F4CAC0DD
:1013C00008F0DCC0C43CFCE5DF0709F0CBC0F80145
:1013D0008281882309F4BAC10E94EF21827221F32D
:1013E0000E946714B3C1C531FCE5DF0708F07BC07C
:1013F000C2308CE5D80708F452C0F80182818823F6
:1014000009F454C00E949F22811102C00E942C2323
:101410000E94BC2290E09093AD028093AC02FE014A
:10142000E350FC45E231F10530F4EA5AFF4F809178
:10143000AC020C94BB308091AC02816027C082600A
:1014400025C0846023C0806121C080621FC0806489
:101450001DC080681BC08460886018C08E7F16C065
:101460008D7F14C08B7F12C08F7E10C08F7D0EC009
:101470008F7B0CC08F770AC08B7F877F07C087FB6D
:10148000222720F991E0922790FB87F98093AC0204
:101490008091AC020E94C0220E943A1C57C1C11523
:1014A0009CE5D90751F0C130DC4579F0C801DF91E6
:1014B000CF911F910F910C94C608F8018281882367
:1014C00009F444C10E94920941C1F8018281882334
:1014D00009F43CC180914002982F909590FB80F9CF
:1014E0008093400233C1C631FCE5DF0739F50E9425
:1014F000EF21282FF80182814091100150911101B4
:10150000882379F02A7A91E009F490E090935E01C3
:10151000911102C069E201C065E3CA010E949323F0
:101520000AC080915E01811102C069E201C065E3D9
:10153000CA010E949E230E943B2208C1C23CDC4596
:1015400009F0B4CFF8018281882309F4FFC00E941A
:101550008214FCC0F8018281882309F4F7C00E943C
:101560000D12F4C0C53CDC4509F0A0CFF801828122
:10157000882309F4EBC00E940012E8C0F8018281C0
:10158000C83CFCE5DF0731F4882309F4DFC00E9482
:101590002B12DCC0C93CDC4530F4882309F4D6C0EA
:1015A0000E941C12D3C0882309F4D0C00E943A12B2
:1015B000CDC0C13DECE5DE0791F4F80182818823BE
:1015C00009F4C4C00E947B108F3028F00E947B1069
:1015D000843108F405CF8FE00E947714B7C0C23D74
:1015E000FCE5DF0708F05AC0CD3C8CE5D80739F49C
:1015F000F8018281882309F4A9C081E0EDCFCE3CB7
:101600009CE5D907C0F4CB3CECE5DE0741F4F801DA
:101610008281882309F49AC00E94831097C0CC3C31
:10162000DC4509F043CFF8018281882309F48EC09C
:101630000E9494108BC0F8018281CF3CFCE5DF074B
:1016400071F4882309F482C00E947B10863028F050
:101650000E947B10883008F4C3CE86E0BDCFC03D29
:10166000DC4570F4882309F471C00E947B1082303D
:1016700028F00E947B10853008F4B2CE82E0ACCF17
:10168000882309F463C00E947B10893028F00E94EF
:101690007B108E3008F4A4CE89E09ECFC53DECE5EA
:1016A000DE0739F4F8018281882309F44FC083E210
:1016B00093CFC63DFCE5DF0740F5F8018281C33DCD
:1016C000FCE5DF0729F4882309F440C088E184CFD2
:1016D000C43DDC4568F48823C9F10E947B10853144
:1016E00028F00E947B10873108F47ACE85E174CF10
:1016F000882361F10E947B10893128F00E947B10C1
:10170000823208F46DCE89E167CFCD3DECE5DE078E
:1017100041F4F80182818823C9F082E00E94982B6D
:1017200015C0CE3DFCE5DF0739F4F801828188233E
:1017300069F00E942C230AC0CC3DDC4509F0B6CEEE
:10174000F8018281882311F080E0E8CF80E0DF910A
:10175000CF911F910F9108950895E72FF0E096E043
:10176000899FE00DF11D112484E0EE0FFF1F8A9583
:10177000E1F7E60FF11DEE0FFF1FE65BFE4F8591CF
:1017800094910895880F991FFC01E65BF24F8591B3
:1017900094910895CF93DF930E94AD0B0E94BD0DED
:1017A000EC01811521E5920708F042C0811560E542
:1017B000960708F031C1883E910500F5803E9105FD
:1017C00008F0D7C1883A910570F4853A910508F080
:1017D000A6C08130910509F4CCC108F47DC10497FD
:1017E00008F0C7C179C18F3B910508F4A3C0803CC4
:1017F000910508F471C1805C9109FDC0C11580E3B9
:10180000D80780F4C11590E2D90708F0F2C0C03FB4
:10181000D10508F461C1CF3FD10511F008F0A9C18D
:10182000D065A7C1C11520E4D20708F0F2C0E7C017
:10183000811569E5960760F5C11588E5D80708F0B8
:1018400037C1C11594E5D90778F4C11523E5D2074E
:1018500008F013C1C11562E5D60708F0F8C0DC2F07
:10186000CC27C16FD06A85C1C11585E5D80708F4BA
:101870001AC1C11596E5D90708F02EC18C2F0E9418
:101880003A0E8F71C82FD0E0DC2FCC27D06271C107
:101890008D3B2CE5920709F416C1F0F4CB3B8CE5A7
:1018A000D80709F40AC108F00BC1C1152AE5D2070F
:1018B00008F012C18C2F8F700E943A0E94E0D695DA
:1018C000C7959A95E1F7CF70D0E0DC2FCC27D06A8E
:1018D0008F70806EC82B4DC1803C9C4509F4F9C0C7
:1018E000C13C8CE5D80760F4CE3B9CE5D90709F4F0
:1018F000EDC0CF3BDC4509F0EFC0C0E0D2ED39C10F
:10190000CE0190568115904208F0E6C08D2F8F7160
:101910000E943A0EDD27D0628F71D82B2AC1853AFA
:10192000910509F4DCC0863A910509F0DBC0C2E8F4
:10193000D0E41FC1883A910509F4D7C0893A9105CE
:1019400009F4D6C08A3A910509F4D5C08B3A9105BD
:1019500009F4D4C08C3A910509F4D3C08B3B9105AE
:1019600009F4D2C08C3B910509F4D1C08D3A9105A0
:1019700009F4D0C0803B910509F4CFC08E3A91059F
:1019800009F4CEC08F3A910509F4CDC0813B910591
:1019900009F4CCC0823B910509F4CBC0833B91058F
:1019A00009F4CAC0843B910509F4C9C0853B91057F
:1019B00009F4C8C0863B910509F4C7C0873B91056F
:1019C00009F4C6C0883B910509F4C5C0893B91055F
:1019D00009F4C4C08D3B910509F4C3C08E3B910549
:1019E00009F4C2C08A3B910509F4C1C0C0E0D4E447
:1019F000C0C0CE019F700E94C20BEC01BAC0CE01E4
:101A00009927D3FF03C0EC01D86CB3C0EC01D06CB4
:101A1000B0C0DF70D06AADC0837021E030E002C09A
:101A2000220F331F8A95E2F73C68CE0174E0969549
:101A300087957A95E1F78370382BCF70C695C69558
:101A400080E2C89FE0011124C22BD32B92C04C2FFF
:101A50004695469590E2499FA0011124C370DD2769
:101A600021E030E0C90102C0880F991FCA95E2F752
:101A7000EC01C42BD52BDC687CC04C2F46954695D9
:101A800080E2489FA0011124C370DD2721E030E0EF
:101A9000C90102C0880F991FCA95E2F7EC01C42B57
:101AA000D52BDA6866C0DC2FCC27C46FD06A61C042
:101AB000DC2FCC27C06FD06A5CC0C0E0D4ED59C029
:101AC000C0E0D5ED56C0C0E0D1ED53C0C0E0D0EDD0
:101AD00050C0C0E0D3ED4DC0C0E0D0E04AC0C1E886
:101AE000D0E447C0C3E8D0E444C0C2EED4E441C06F
:101AF000C9EED4E43EC0CAEED4E43BC0C5EBD4E4A6
:101B000038C0C6EBD4E435C0C3EBD4E432C0C4EB78
:101B1000D4E42FC0C7EBD4E42CC0CCECD4E429C06F
:101B2000CDECD4E426C0C3E8D5E423C0CAE8D5E4AC
:101B300020C0C2E9D5E41DC0C4E9D5E41AC0C1E2A1
:101B4000D6E417C0C3E2D6E414C0C4E2D6E411C0A0
:101B5000C5E2D6E40EC0C6E2D6E40BC0C7E2D6E4C6
:101B600008C0CFE6D4E405C0C0E7D4E402C0CAE2AE
:101B7000D6E4CE01DF91CF9108958238910549F1E5
:101B8000B0F48133910509F458C048F489329105C5
:101B900009F44EC08A32910509F454C00895853382
:101BA000910509F440C08933910599F00895833E69
:101BB000910529F138F4803E910591F0823E91051E
:101BC000A1F00895863E9105F9F0873E910531F127
:101BD00008952091AC0220FD3AC021FD38C008953F
:101BE0008091AC0280FD35C032C08091AC0282FF92
:101BF00032C08091AC0284FD30C083EE39C0809148
:101C0000AC0282FD28C0F5CF8091AC0283FF27C0D3
:101C10008091AC0284FD21C087EE2AC08091AC0285
:101C200083FD1DC0F5CF8091AC0285FD1AC01BC09D
:101C30008091AC0285FD17C014C08091AC0286FD76
:101C400014C015C08091AC0286FD11C00EC080EE9C
:101C50000FC089E30DC082EE0BC080E009C086EEA4
:101C600007C089E205C085E303C08AE201C081E3C1
:101C700090E008959091AC0292FF0DC0282F28713A
:101C8000283019F4877F846006C0282F24712430FF
:101C900011F48B7F886093FF0DC0282F28712831A5
:101CA00019F4877E846106C0282F2471243111F431
:101CB0008B7E886194FD877E0895E82FF0E0EE0F1B
:101CC000FF1FE15AFE4F8081918108950895A3E39B
:101CD000B1E041E050E026E02A0F8D91E82FE29537
:101CE000EF70F0E031A18F70BA0102C0660F771F6C
:101CF0008A95E2F7CB01962F9095932391A392A119
:101D0000892B82A32A13E9CFA3E2B1E041E050E09E
:101D100020E12A0F8D91E82FE295EF70F0E031A1DC
:101D20008F70BA0102C0660F771F8A95E2F7CB0168
:101D3000962F9095932391A392A1892B82A32A1386
:101D4000E9CFEBE6F1E0AFE5B1E0119211921D921F
:101D50001D9271E0E737F707C1F786E00E94490F4F
:101D60000C9483095F926F927F928F929F92AF92B1
:101D7000BF92CF92DF92EF92FF920F931F93CF9378
:101D8000DF9303E311E0ABE6B1E0612CEE24E394D2
:101D9000F12C5D018D909C90119711961C921E92D2
:101DA000E80189918E01E82FE295EF70F0E091A1B2
:101DB0008F70A70101C0440F8A95EAF7892F842B01
:101DC00081A382A1542E5094852182A3D0EADA9572
:101DD000F1F783E2C82E81E0D82E80E090E0E601A2
:101DE00079906E01272D22952F7030E0E90168A1CE
:101DF0002D913C91119770E0D72DDF7002C0759541
:101E00006795DA95E2F760FD08C0B701082E02C0B9
:101E1000660F771F0A94E2F702C060E070E0262B9D
:101E2000372B11963C932E93019680319105B9F68C
:101E300081A1D52DD823D1A382A1482B42A31296EC
:101E400081E0F501208131818216930609F480E05A
:101E5000682AF1E0A737BF0709F09BCF262D46E09F
:101E60006FE571E08BE691E00E944A0F0E94020943
:101E7000862DDF91CF911F910F91FF90EF90DF9012
:101E8000CF90BF90AF909F908F907F906F905F901A
:101E900008950895FF920F931F93CF93DF93F82E29
:101EA000092F162FD72FC42F222349F081E08093CA
:101EB00079010E9461249093780180937701809149
:101EC00079018823D9F080917701909178010E945F
:101ED0006D24069798F0EF2DF02FA12FBD2F80E0F5
:101EE00090E04C2F50E08417950734F42191319104
:101EF0002D933D930196F7CF10927901DF91CF9109
:101F00001F910F91FF900895CF92DF92EF92FF9271
:101F10000F931F93CF93DF937B01282F382FE82F48
:101F2000F0E0F11006C0EF59F14F6491762F862F43
:101F30007BC00F2D10E046E0649FC0011124CFEF5D
:101F4000D0E0BE010E947130AB016BEA6403C001B6
:101F5000659F900D11248E0D911D8E0D911D982F52
:101F6000990F890FBE01601B710B6E9FD0016F9F8F
:101F7000B00D7E9FB00D11249B2F8F9DB0011124B9
:101F8000672F77277E01E61AF70AEE9EB001EF9ED3
:101F9000700DFE9E700D11246E01C81AD108C09EEE
:101FA0007001C19EF00CD09EF00C11240F2D112752
:101FB000C01BD10BCE9F8001CF9F100DDE9F100D57
:101FC0001124812F4230510591F04CF441155105F7
:101FD000E1F041305105B9F4822F272F16C044306B
:101FE000510569F044F04630510579F00CC0822F5C
:101FF0002B2F912F0AC02B2F932F872F06C08B2FAB
:10200000922F212F02C08B2F972FE22FF0E0EF5954
:10201000F14F7491E82FF0E0EF59F14F6491E92FFF
:10202000F0E0EF59F14F8491DF91CF911F910F9123
:10203000FF90EF90DF90CF9008950895CF93DF93B6
:10204000762FE901682F842F0E94840F798368839B
:102050008A83DF91CF910895493C08F048EC0C94B5
:102060001E1080917102282F269530E02115310530
:1020700019F48170826005C02532310524F0817029
:1020800088648093710280917402893C18F088EC16
:1020900080937402089588E090E00C94F030CF9320
:1020A000DF9300D000D0CDB7DEB7AB01BC014983D0
:1020B0005A836B837C830E94311049815A816B81E2
:1020C0007C8188E090E00F900F900F900F90DF914F
:1020D000CF910C940E31E1E7F2E083E0808311822E
:1020E0008FEF828388EC8383148260817181828187
:1020F00093810C944F108091710280FF02C08695ED
:10210000089580E0089580917502833018F48F5F00
:1021100080937502609171027091720280917302D6
:10212000909174020C944F1080917502882319F0DD
:10213000815080937502609171027091720280915A
:102140007302909174020C944F106091040170E03E
:102150008091710280FF0AC080917E0123E0829FFE
:10216000C00111248A589D4F0C949B1580917D01CC
:1021700090910301891780F7E82FF0E09F01220F6B
:10218000331FE20FF31FEA58FD4F118210821282B3
:102190008F5FF0CF9091710290FF16C090917D01FA
:1021A00020910301921770F4E92FF0E0DF01AA0FEC
:1021B000BB1FEA0FFB1FEA58FD4F818360834283F8
:1021C0009F5FF0CF0C94A5100895CF93DF9300D0BC
:1021D0001F92CDB7DEB79091710290FF0AC09E01A9
:1021E0002F5F3F4F0E942C104B8169818A810E9492
:1021F000CA100F900F900F90DF91CF910895CF9359
:10220000DF93EC01EC81F0E0E45AF24F4491E1E716
:10221000F2E0628181810E94E5108C818F5F8C8366
:10222000DF91CF910895CF93DF93EC01E1E7F2E0E6
:10223000438162818C810E94E5108C818F5F8C8349
:10224000DF91CF9108950F931F93CF93DF9300D029
:102250001F92CDB7DEB78C0180917A0181110AC03F
:102260009E012F5F3F4F48EC6FEF0E942C108A8138
:1022700080937A01F8018481813051F028F0823016
:1022800061F440917A010AC080917A0140E007C070
:1022900060917A0140E080E003C040E080E060E0CF
:1022A0000E94CA10F801248130E0C901019663E060
:1022B00070E00E94853084830F900F900F90DF9123
:1022C000CF911F910F910895AF92BF92CF92DF925D
:1022D000EF92FF920F931F93CF93DF9300D01F9243
:1022E000CDB7DEB7182FF62E042FE22E9091710293
:1022F00090FF6EC0E92FE695AE2FB0E0A75CBE4F11
:102300008C91809386019E7F923061F49E012F5FB5
:102310003F4F812F0E942C104B8169818A810E943E
:10232000CA1044C0823019F4009174023FC0863054
:1023300019F4109172023AC08930D9F38931B1F59C
:10234000E9518E2F8170D82EE695F0E0E45AF14FD6
:10235000A590B490C12CBB2460910201C61620F553
:10236000EC2DF0E0EA9DC001EB9D900DFA9D900DE3
:10237000112470E00E947130812FD11002C0860FAD
:1023800001C0861B90917D01E90FF11D9F01220F75
:10239000331FE20FF31F9F012A583D4F402F6F2D2F
:1023A0000E942C10C394D8CF0E94A51010937202E3
:1023B000F092730200937402EE2051F0609171026A
:1023C0007091720280917302909174020E944F107A
:1023D0000F900F900F90DF91CF911F910F91FF9071
:1023E000EF90DF90CF90BF90AF900895E1E7F2E0DB
:1023F0009181282F4381628188E0890F0C946411B8
:1024000081E00C94F611E1E7F2E09181282F4381FD
:10241000628188EF890F0C94641181E00C9403129F
:10242000E1E7F2E0628128E0620F08F46FEF282F05
:10243000438181810C94641181E00C941012E1E7D6
:10244000F2E0628128E0621B08F460E0282F4381FB
:1024500081810C94641181E00C941F12E1E7F2E099
:10246000438128E0420F08F44FEF282F62818181D9
:102470000C94641181E00C942E12E1E7F2E04381A8
:1024800028E0421B08F440E0282F628181810C94EF
:10249000641181E00C943D1220E00C946411FF92D1
:1024A0000F931F93CF93DF93EC01F12C0FEF10E00C
:1024B00060910201F616E8F420917D0130E02F0DC5
:1024C000311DC901880F991F280F391F2A583D4F08
:1024D00070E0C8010E948530962F8C814091740273
:1024E00060917302F99E800D11240E942C10F394C8
:1024F000DFCF0E94A5109A818C8190FF02C08F5F70
:1025000001C081508C83DF91CF911F910F91FF907B
:102510000895BF92CF92DF92EF92FF920F931F9395
:10252000CF93DF93FC01828180FF02C00FEF01C0D7
:1025300001E010E0809102011817E0F5C12ED12CC6
:1025400080917D01E601C80FD11DCE01880F991F32
:10255000C80FD91FCA58DD4F198218821A8234E079
:10256000E32EF12CB12C80917C018B0D87FF03C0F1
:1025700090910201890F082E000C990BC816D906FC
:1025800091F4809174028E9DA0018F9D500D1124B5
:1025900055954795559547959E0160917302809199
:1025A00072020E942C10B00EF1E0EF1AF108D9F679
:1025B0001F5FC0CF0E94A51080917C01013031F4D3
:1025C000811102C080910201815007C090E0019604
:1025D0006091020170E00E94853080937C01DF9160
:1025E000CF911F910F91FF90EF90DF90CF90BF9010
:1025F0000895CF9380917D0190910301891770F424
:10260000E82FF0E09F01220F331FE20FF31FEA587B
:10261000FD4F1182108212828F5FF0CFC0E0609177
:102620000201C617B8F5EC2FF0E070E0CF010E9470
:10263000853040917D01480F80917B01082E000C70
:10264000990B50E0E817F907C4F020910101022E20
:10265000000C330B2E173F0784F09A01220F331F13
:10266000240F351F2A583D4F409174026091730228
:10267000809172020E942C100BC0FA01EE0FFF1F16
:102680004E0F5F1FFA01EA58FD4F1182108212822D
:10269000CF5FC5CF0E94A5102091000180917B01E2
:1026A000820F80937B0190910101920F9093010121
:1026B00019165CF4082E000C990B4091020150E0B1
:1026C00041505109841795071CF021952093000172
:1026D000CF9108950F931F93CF93DF938C01FC014B
:1026E0008481958101968170992795838483C0E0C8
:1026F000D5E580910201C817F8F420917D0130E002
:102700002C0F311DC901880F991F280F391F2A5816
:102710003D4F4C2F4695F80184819581840F911D82
:10272000817040917402609173028D9F802D1124FD
:102730000E942C10CF5FDDCFDF91CF911F910F91C1
:102740000C94A5100F931F93CF93DF93EC0100E03F
:1027500010E080910201282F30E00217130724F5C2
:1027600090917D019801290F311DA901440F551F3A
:10277000240F351F2A583D4F869590E04C8108174D
:1027800019071CF4442331F002C0411103C04091E9
:10279000740201C040E060917302809172020E9455
:1027A0002C100F5F1F4FD5CF0E94A5102C8130E059
:1027B0002F5F3F4F217033272C83DF91CF911F91E3
:1027C0000F910895E1E7F2E080818E7F8083608140
:1027D0007181828193810E944F10109287012FEFA7
:1027E00080E792E0215080409040E1F700C0000077
:1027F0000C94A510E1E7F2E080818E7F8083109237
:1028000087012FEF80E792E0215080409040E1F770
:1028100000C000000C94A51060917102669570E0F4
:102820004BE050E085E091E00E94DB30892B19F409
:1028300081E0809387010E946124909380018093BE
:102840007F0108959091710290FF35C091708111C0
:1028500002C0926006C0853210F0986402C0880FF2
:10286000982B90937102662351F0609171027091E0
:10287000720280917302909174020E944F106091D5
:102880007102669570E04BE050E085E091E00E94B7
:10289000DB30892B19F01092870102C00E940C14C2
:1028A00081E0809382014091740260917302809173
:1028B00072020C944C120895682F909171029695B3
:1028C00081E0890F853208F081E00C94221481E0C8
:1028D0000C945C14682F9091710296958FEF890F7C
:1028E00009F484E20C94221481E00C946A1461E0EF
:1028F0000C942214E1E7F2E0808181608083869568
:102900000C9477148091710280FD0C94E2130C9466
:102910007A1460E00C94221480918501811133C0F7
:10292000809140028160809340020E949F22811129
:1029300004C00E942C230E946B100E944B106093D5
:1029400071027093720280937302909374026E7F8F
:1029500061F40E946B100E944B106093710270939F
:10296000720280937302909374020E94311010924D
:1029700087018091710280FF03C086950E948914AF
:1029800081E0809385010895E1E7F2E08081816034
:10299000808386950C9489141092870108950F9373
:1029A0001F93CF93DF9380918701882309F48CC014
:1029B00080918601E0917102E695E81BE093810128
:1029C000823049F4F0E0E85AF24FE491CE2FD0E0A3
:1029D0000FEF10E149C0863049F4F0E0EB5AF24FB6
:1029E000E491CE2FD0E003E111E13EC0893051F4F3
:1029F000E695F0E0EE5AF24FE491CE2FD0E00FE4EE
:102A000012E132C08F3051F4E695F0E0E15BF24F15
:102A1000E491CE2FD0E009E812E126C0853149F4D7
:102A2000F0E0E45BF24FE491CE2FD0E009EF12E149
:102A30001BC0883181F0833239F4EAE4FDE0C591AE
:102A4000D49103E211E110C0843251F4C4EFD1E01B
:102A500002EA13E109C0C8EED3E00AE613E104C0BC
:102A6000C0EDD7E00DE110E180918201882389F06B
:102A7000109282010E9461249E0120953095820F60
:102A8000931F9093800180937F0110928401109294
:102A9000830180917F01909180010E946D248C17A9
:102AA0009D0790F0E0917F01F0918001CE0FDF1F34
:102AB000D0938001C0937F018FE791E0F801DF910F
:102AC000CF911F910F910994DF91CF911F910F9199
:102AD00008952EB1342F309523233EB1432B3FB7B9
:102AE000F894FC01680F791FE617F70789F08191C8
:102AF00098E04EB9000000C087FF2EB9880F000093
:102B000000C000C000C02EB900C09A9591F7ECCF6C
:102B10003FBF08952DB1242B2DB99B01220F331FE8
:102B2000620F731F0E94691587EC90E00197F1F71F
:102B300000C00000089544E00C948A150F931F9381
:102B4000CF93DF93C62FD42F022FFC0182818823DD
:102B5000C9F060938A010E94612490938901809357
:102B6000880180E28C0F883008F050C0C77081E087
:102B700001C0880FCA95EAF7DF91CF911F910F919D
:102B80000C945E1910918A01161330C0809188014F
:102B9000909189010E946D24883C910538F5C0E22E
:102BA000CD0F1D17B9F080E2810F883040F4177007
:102BB00081E001C0880F1A95EAF70E946519C830B4
:102BC00048F481E09D2F977001C0880F9A95EAF72D
:102BD0000E945E19802F0E944B19C830B8F4D7703C
:102BE00081E001C0880FDA95EAF70AC080E28C0F15
:102BF000883060F4C77081E001C0880FCA95EAF799
:102C0000DF91CF911F910F910C946519DF91CF91B6
:102C10001F910F9108959C01CB01203F4CE5340793
:102C2000F9F078F4283DFCE53F07B9F0293D4CE583
:102C3000340711F1273D3C4531F526E241EE61EEC6
:102C40001EC0223FFCE53F0799F070F0233F3C4552
:102C5000D1F427E245EE66EE12C027E245EE0EC043
:102C600026E241EE60EE0BC027E245EE64EE07C0BF
:102C700026E241EE62EE03C028E241E065EE0E94EA
:102C80009E1580E00895FC018281882319F010923E
:102C90008A01089581E008959093900180938F01B7
:102CA0000895E0918F01F0919001309721F001900B
:102CB000F081E02D099480E00895E0918F01F0917A
:102CC0009001309799F020912201222359F0209110
:102CD000AC0227FF07C0DC012C9111962C931197B1
:102CE00025E02C930280F381E02D09940895E09172
:102CF0008F01F0919001309739F022E0DC012C93A4
:102D00000480F581E02D0994089520918D01309182
:102D10008E018217930771F090938E0180938D013D
:102D2000E0918F01F0919001309721F00680F781BA
:102D3000E02D0994089520918B0130918C01821728
:102D4000930771F090938C0180938B01E0918F0138
:102D5000F0919001309721F00084F185E02D0994E5
:102D6000089585B7806885BF85B7806885BF089559
:102D7000089508950C94B91608950C94BC160E94F9
:102D8000B1160E94B8160C94BA1681E008950E94FC
:102D900058240E94670E0E942D250E9477280E94C9
:102DA0008C140C94BD164F925F927F928F929F92DB
:102DB000AF92BF92CF92DF92EF92FF920F931F9349
:102DC000CF93DF93CDB7DEB72A970FB6F894DEBF67
:102DD0000FBECDBF0E94B20E0E94C516811111C058
:102DE0008FEF89838A831B820E9461248160782F00
:102DF0009D838C8349815A816B818D810E949117BB
:102E000057C092E9C92E91E0D92E00E010E0AA2423
:102E1000A394B12C702E802F0E945D0E4C01F60100
:102E2000419051906F01482659264114510431F4C4
:102E30000F5F1F4F0630110569F7D2CF8091400216
:102E400081FD0E94660E20E030E07501022E02C076
:102E5000EE0CFF1C0A94E2F7C70184219521892B0F
:102E600009F12E837F828E209F2091E0892809F42A
:102E700090E098870E9461248160782F9A878987E3
:102E80004E815F8168858A850E949117000F111F0E
:102E9000F801EE56FE4F80819181E826F926F182F5
:102EA000E08206C02F5F3F4F2031310571F6C0CF61
:102EB0000E94D027109191010E9451161817D9F045
:102EC0000E945116809391012A960FB6F894DEBFA6
:102ED0000FBECDBFDF91CF911F910F91FF90EF906B
:102EE000DF90CF90BF90AF909F908F907F905F903A
:102EF0004F900C948F092A960FB6F894DEBF0FBE40
:102F0000CDBFDF91CF911F910F91FF90EF90DF9098
:102F1000CF90BF90AF909F908F907F905F904F9099
:102F20000895CF93DF93CDB7DEB72B970FB6F89404
:102F3000DEBF0FBECDBF4F83588769877A878B87E7
:102F4000DE01119686E0FD0111928A95E9F785E090
:102F5000FE01379601900D928A95E1F749815A81D9
:102F60006B817C818D819E810E94E41E2B960FB621
:102F7000F894DEBF0FBECDBFDF91CF910895FC0165
:102F8000808191810E94B0210895882309F41AC19B
:102F90008238C1F40E94511681FD14C169E3809109
:102FA0001001909111010E9493230E943B222FEF68
:102FB00081EE94E0215080409040E1F700C0000095
:102FC00069E319C08338F9F40E94511680FDFAC0F4
:102FD00063E580911001909111010E9493230E945A
:102FE0003B222FEF81EE94E0215080409040E1F7AA
:102FF00000C0000063E580911001909111010E94D2
:103000009E230C943B228438C1F40E94511682FD09
:10301000D9C067E480911001909111010E9493231F
:103020000E943B222FEF81EE94E02150804090409F
:10303000E1F700C0000067E4DECF9CEF980F913A03
:1030400040F4682F80911001909111010E94932308
:10305000D8CF90E2980F983050F4877091E001C07B
:10306000990F8A95EAF7892F0E94F221CACF9BE532
:10307000980F933070F4853A29F0863A31F083E85E
:1030800090E005C081E890E002C082E890E00C94F6
:10309000851698E5980F973108F08EC0883A09F4A4
:1030A00045C0893A09F445C08A3A09F445C08B3ACB
:1030B00009F445C08C3A09F445C08B3B09F445C07E
:1030C0008C3B09F445C08D3A09F445C0803B09F4B6
:1030D00045C08E3A09F445C08F3A09F445C0813B9A
:1030E00009F445C0823B09F445C0833B09F445C05F
:1030F000843B09F445C0853B09F445C0863B09F48F
:1031000045C0873B09F445C0883B09F445C0893B6D
:1031100009F445C08D3B09F445C08E3B09F445C018
:103120008A3B09F445C080E090E044C082EE90E024
:1031300041C089EE90E03EC08AEE90E03BC085EB56
:1031400090E038C086EB90E035C083EB90E032C071
:1031500084EB90E02FC087EB90E02CC08CEC90E0EB
:1031600029C08DEC90E026C083E891E023C08AE876
:1031700091E020C082E991E01DC084E991E01AC08D
:1031800081E292E017C083E292E014C084E292E010
:1031900011C085E292E00EC086E292E00BC087E2A9
:1031A00092E008C08FE690E005C080E790E002C0A2
:1031B0008AE292E00C949B16803F20F00E94D82671
:1031C0000C94C5270895882309F464C0823879F4E3
:1031D0000E94511681FF5EC069E3809110019091B9
:1031E00011010E9493230E943B2269E310C083389F
:1031F000B1F40E94511680FF4DC063E5809110012B
:10320000909111010E9493230E943B2263E58091DB
:103210001001909111010E949E230C943B2284384E
:1032200079F40E94511682FF35C067E48091100145
:10323000909111010E9493230E943B2267E4E7CF03
:103240009CEF980F913A10F4682FE1CF90E2980F1D
:10325000983050F4877091E001C0990F8A95EAF791
:10326000892F0E94F821D9CF9BE5980F933020F445
:1032700080E090E00C94851698E5980F973120F443
:1032800080E090E00C949B16803F20F00E94402745
:103290000C94C5270895CF93C82F0E94C517C93332
:1032A00049F42FEF83EC99E0215080409040E1F702
:1032B00000C000008C2FCF910C94E318882321F0DC
:1032C0000E94F2210C943B220895882321F00E9451
:1032D000F8210C943B2208954F925F926F927F9257
:1032E000BF92CF92DF92EF92FF920F931F93CF93F3
:1032F000DF937C01062FC72FFC01158112951F70EB
:10330000D281D1110E940F220E94E821882379F0F6
:10331000DD2369F080E2800F883048F082E00E946F
:1033200086220E94E82191E0B82EB92601C0B12C76
:10333000CC2EC2948FE0C822D12CF601E859FF4F61
:103340000C94BB308C2F807FCF70882311F0C295F6
:10335000C07FDD2399F0CC2309F4C4C180E2800F43
:10336000883010F0011104C08C2F0E94F22103C09C
:103370008C2F0E9402220E943B22B4C1802F0E9407
:10338000E318CC2309F4F7C180E2800F883010F0F5
:10339000011104C08C2F0E94F82103C08C2F0E94C1
:1033A00008220E943B22E7C18C2F807FCF708032A1
:1033B00011F0C295C07F002319F00130C9F022C07E
:1033C000DD2371F0112341F0113031F40E942222EB
:1033D0008C2B0E942822CFC10E9422228C2B3AC122
:1033E000112319F0113009F4C6C10E94312218C00E
:1033F000DD2321F0163008F0BEC10EC0153008F0F4
:10340000BAC10EC0DD2351F0112331F0F7018581DF
:1034100080FF68C18F7085838C2F1CC1111173C10F
:103420008C2F1EC18C2F86958695837090E0009717
:1034300019F0019761F09FC1DD2321F0802F9C2FAF
:10344000937002C080E090E00E948516A4C1DD2345
:1034500021F0802F9C2F937002C080E090E00E94AA
:103460009B1699C1DD23F9F0053F51F0063F71F03D
:10347000043FA9F48091A6029091A70281600BC03D
:103480008091A6029091A702826005C08091A60259
:103490009091A70284609093A7028093A602802F48
:1034A0000E94D8261EC0053F51F0063F71F0043F30
:1034B000A9F48091A6029091A7028E7F0BC0809103
:1034C000A6029091A7028D7F05C08091A6029091DF
:1034D000A7028B7F9093A7028093A602802F0E9461
:1034E00040270E94C52757C18C2F837009F04BC01D
:1034F000D1114DC1202F229526952770220F220F22
:10350000602F6F70862F90E0A0E0B0E02C013D01AD
:10351000022E04C0440C551C661C771C0A94D2F77A
:1035200004FF10C08FE090E0A0E0B0E004C0880F7E
:10353000991FAA1FBB1F2A95D2F780959095A09539
:10354000B09503C080E090E0DC01C695C695C370DD
:10355000D0E0BC01CD016429752986299729C230A4
:10356000D10559F0C330D10559F0219719F00E94C7
:1035700029200DC10E9417200AC10E943B2007C1CB
:103580000E94152004C1DD2319F08C2F817001C029
:103590008695882309F4FBC0202F22952695277055
:1035A000220F220F602F6F70862F90E0A0E0B0E016
:1035B0002C013D01022E04C0440C551C661C771CD6
:1035C0000A94D2F704FF10C08FE090E0A0E0B0E0D2
:1035D00004C0880F991FAA1FBB1F2A95D2F7809598
:1035E0009095A095B09503C080E090E0DC01C69571
:1035F000C695C370D0E0BC01CD0164297529862928
:103600009729C230D10559F0C330D10559F021971F
:1036100019F00E94EF20BBC00E94DD20B8C00E94BC
:103620000121B5C00E945020B2C0802F90E0FC0163
:10363000E05EF109E531F10508F050C0E858FF4FB0
:103640000C94BB300F708C2F8F71DD2331F00E94F2
:103650007620802F0E945E198EC00E949720802FB6
:103660000E94651988C0DD2341F0153008F083C041
:103670008C2F8F710E94BC207EC0163008F07BC05A
:10368000F7CFDD2339F08C2F8F710E94762073C025
:10369000DD23C9F38C2F8F710E9497206CC0DD232E
:1036A00029F08C2F8F710E94612065C00E945C20E0
:1036B00062C0DD2349F0CF718C2F0E94762063E039
:1036C0008C2F0E94712257C081E00E948622123006
:1036D00008F451C082E00E9486224DC0DD2331F003
:1036E000112389F2802F0E94C51745C0112391F242
:1036F000093349F4FFEF23EC89E0F150204080408A
:10370000E1F700C00000802F0E94E31834C04C2F66
:103710004F70602FC7010E94B8080E94881F3BC0ED
:10372000D11139C0CF70D0E0C230D10599F03CF44E
:10373000209769F02197F9F40E94B1282CC0C43079
:10374000D10571F054F02597B1F480E00AC00E94D1
:10375000942821C00E94F0281EC00E94F7281BC098
:1037600085E00E941A2917C04C2F4F70602FC701A7
:103770000E94AC0B10C098E0C916D10441F05CF077
:10378000FAE0CF1AD10822E0C216D10420F40E9438
:1037900051160E948F09BB20F1F00E94E42180FDA8
:1037A0001AC0F70112820E94DE210E947620C70112
:1037B0000E94F91B0E94DE21DF91CF911F910F9192
:1037C000FF90EF90DF90CF90BF907F906F905F90D1
:1037D0004F900C949720DF91CF911F910F91FF9004
:1037E000EF90DF90CF90BF907F906F905F904F9061
:1037F00008950F931F93CF93DF93EC0188819981F4
:103800002B813C81232BB9F09F3F11F48F3F99F01E
:10381000CE010E94A109882371F0688179818A8193
:103820000E94BB218C010E9413210E941420B80128
:10383000CE010E946C19DF91CF911F910F910895D5
:103840000E940F220E941F220E943B220E946B288E
:103850000E94C52780E090E00E94851680E090E0FD
:103860000C949B1680911001909111010E94A92344
:103870000C94201C0E94FF210C94321CE92FE2952D
:10388000EF70F0E03297EE30F105B0F4E357FF4F00
:103890000C94BB30803F91F018F4803E68F40EC069
:1038A000843F51F40BC0803E48F0813F29F406C0AC
:1038B00093FB882780F9089580E0089581E00895BA
:1038C0000E94B0210E943E1C0895CF93DF9300D048
:1038D00000D01F92CDB7DEB70F900F900F900F90D2
:1038E0000F90DF91CF910895CF93DF9300D000D058
:1038F00000D0CDB7DEB726960FB6F894DEBF0FBE68
:10390000CDBFDF91CF9108951F93CF93DF93C091E7
:103910009F0116E08091A001C81799F0D0E01C9F8C
:10392000F0011D9FF00D1124EF55FE4F4081518194
:1039300062817381848195810E94741C2196C77075
:10394000E9CFDF91CF911F9108954091D10150911E
:10395000D2016091D3017091D4018091D5019091F1
:10396000D6010C94741C8091D60182958F7009F059
:1039700054C08091D301882309F44FC080919F01E6
:10398000A091A0016091D1017091D2014091D40128
:103990005091D501B6E08A1709F43FC090E0411577
:1039A0005105C1F17F3F11F46F3FA1F1B89FF001C4
:1039B000B99FF00D1124EF55FE4F218172132AC0DB
:1039C0002081621327C02281211124C023813481E8
:1039D0002417350710F421503109241B350B283CDE
:1039E0003105C0F42091D6012F7020612093D601BB
:1039F00026E0289FF001299FF00D1124EA55FE4F83
:103A000080818F708061808381ED91E00E94F91B3D
:103A10000C94841C01968770BECF0895CF92DF92DC
:103A2000EF92FF920F931F93CF93DF93CDB7DEB743
:103A300062970FB6F894DEBF0FBECDBF8C0185E054
:103A4000F801DE011D9601900D928A95E1F7D801EB
:103A50004C9111965C91119712966C911297139656
:103A6000CD90DC9014973091D1017091D20180916A
:103A7000D4019091D501009709F46BC17F3F19F4EF
:103A80003F3F09F466C1E090D301EE2009F4C0C0C5
:103A90002091D601C816D90628F0F601E81BF90BCB
:103AA000CF0104C0809590958C0D9D1DFF24F3944B
:103AB000883C910578F0F12C207F09F0C6C07C2D60
:103AC000D98AC88A89890E94651C81ED91E00E948B
:103AD000F91BB1C0822F807F09F046C0751314C056
:103AE000341312C0611110C02F7020612093D601D1
:103AF0000E94A51C81ED91E00E94F91B8091D601E6
:103B0000D80115968C932EC0CD2819F15F3F11F482
:103B10004F3FF9F0F62E61111CC080919F0120915A
:103B2000A00136E0821709F45AC090E0389FF001F6
:103B3000399FF00D1124EF55FE4F7181571306C0C8
:103B40007081471303C07281711103C001968770A1
:103B5000E9CFF62E662309F427C18091D601816052
:103B60008093D601F12C20C1751308C0341306C010
:103B7000611104C08091D601D801C3C04D875E8712
:103B80008D859E856A8B0E94601C6A898823E1F17D
:103B90006623D1F12091D601822F82958F7090E01B
:103BA000029774F08091D1019091D20198878F8310
:103BB0001986DB86CA862C87CE0107960E94F91BE0
:103BC00086E0F801A1EDB1E001900D928A95E1F750
:103BD0000E94B31C0E94A51CFF24F394E5C04D87EE
:103BE0005E878D859E850E94B021292F22952F709A
:103BF00030E0223031050CF0CBC09F7009F0C5C019
:103C0000805E883008F4D0C0C8010E94F91BE4CF60
:103C1000C816D90608F453C0F601E81BF90BCF010A
:103C2000883C910508F450C0F12C7C2DD98AC88AB3
:103C300089890E94651CE1EDF1E086E0DF011D92BB
:103C40008A95E9F70E94A51CAFC0751314C0341300
:103C500012C0611110C08091D601F8018583C8019E
:103C60000E94F91B86E0E1EDF1E0DF011D928A95EB
:103C7000E9F7FE2C99C04D875E878D859E856A8BFE
:103C80000E94601C6A89882309F4BECF662309F468
:103C9000BBCF2091D601822F82958F7090E0029742
:103CA0000CF48ECF8091D1019091D2019A838983B7
:103CB0001B82DD82CC822E83CE0101967FCF809540
:103CC00090958C0D9D1DACCFF62E662309F49CCFEC
:103CD00075132EC034132CC02091D60120FD1FC0B7
:103CE000822F82958F70D9F0D80115962C93159755
:103CF0008F3049F08F5F982F9295907F822F8F7031
:103D0000892B15968C93C8010E94F91B86E0F80157
:103D1000A1EDB1E001900D928A95E1F793CF86E095
:103D2000F801A1EDB1E001900D928A95E1F73CC058
:103D30004D875E878D859E850E94601C811140CFD6
:103D40008091D60181608093D601C8010E94F91B41
:103D50002BC0662309F458CF4D875E878D859E85DD
:103D60000E94601CF82E882309F44ECF86E0F801EB
:103D7000A1EDB1E001900D928A95E1F781ED91E01E
:103D80000E94BF170E94B31C5DCF811139CF0CC0B8
:103D9000243031050CF038CF9F7009F431CFF80191
:103DA0009581907F09F02CCF8F2D62960FB6F894F5
:103DB000DEBF0FBECDBFDF91CF911F910F91FF905E
:103DC000EF90DF90CF9008951F93CF93DF93CDB7FF
:103DD000DEB72C970FB6F894DEBF0FBECDBF4F8372
:103DE000588769877A878B879C87CE0107960E94C0
:103DF0000E1D882369F08F8198852A853B85232BAA
:103E0000F1F19F3F09F063C08F3F09F060C037C0F8
:103E100086E0FE013796DE01119601900D928A959B
:103E2000E1F76F817885EA85FB85309741F17F3F27
:103E300011F46F3F21F12091A00130E0C9010196FA
:103E40008770992740919F0150E08417950709F4E6
:103E500047C069837A83FD83EC8396E0929FD0010B
:103E6000939FB00D1124AF55BE4FFE0131960190C6
:103E70000D929A95E1F78093A0010E94841C16E0B0
:103E800080919F019091A0018917C1F1189FC001F5
:103E900011248F559E4F0E940E1D882379F1E091C9
:103EA0009F011E9FF0011124EF55FE4F408151816B
:103EB00062817381848195810E94741C80919F012D
:103EC00090E001968770992780939F01D9CF4F8109
:103ED000588569857A858B859C850E94741CCFCF17
:103EE0000E943A1C1092A00110929F01E1EDF1E0B6
:103EF00086E0DF011D928A95E9F7C1CF2C960FB6B7
:103F0000F894DEBF0FBECDBFDF91CF911F91089512
:103F1000EF92FF920F931F93CF93DF938C01892B26
:103F200009F46CC0F12CEE24E394E8012196F80129
:103F30008491843740F4843008F051C0813081F09E
:103F4000823019F15BC0853709F444C0A8F19CE7C1
:103F5000980F903708F052C08F770E94E31841C045
:103F60000E5F1F4FFE01C49180E28C0F883048F431
:103F7000C7708E2D01C0880FCA95EAF70E941222E1
:103F800014C08C2F0E94C5172DC00E5F1F4FFE015D
:103F9000C49180E28C0F883058F4C7708E2D01C018
:103FA000880FCA95EAF70E9418220E943B221AC085
:103FB0008C2F0E94E31816C00E5F1F4FFE01C491A4
:103FC000CC2381F08FE99FE00197F1F700C000005A
:103FD000C150F6CF0E5F1F4FFE01F49003C00E9448
:103FE000C5178E018F2D882309F49FCFEFE9FFE0DD
:103FF0003197F1F700C000008150F5CFDF91CF91EC
:104000001F910F91FF90EF90089508950C94052053
:104010000E94062060931702709318028093190281
:1040200090931A020C94201C08950C9408200F936E
:104030001F930091170210911802209119023091DC
:104040001A02602B712B822B932B1F910F910C94D2
:1040500008200F931F9300911702109118022091CE
:10406000190230911A0260237123822393231F9136
:104070000F910C9408200F931F9300911702109139
:1040800018022091190230911A02602771278227A5
:1040900093271F910F910C94082008950C944D20A4
:1040A0000E944E20609313027093140280931502B5
:1040B000909316020C94201C60E070E0CB010C94ED
:1040C00050200F931F9341E050E060E070E08A01C0
:1040D0009B0104C0000F111F221F331F8A95D2F7C6
:1040E000C901B8011F910F910C9450200F931F9399
:1040F00041E050E060E070E004C0440F551F661FCF
:10410000771F8A95D2F78091130290911402A091A3
:104110001502B09116028A019B01082B192B2A2B3C
:104120003B2BC901B8011F910F910C9450200F93A4
:104130001F9341E050E060E070E004C0440F551F61
:10414000661F771F8A95D2F74095509560957095B8
:104150008091130290911402A0911502B091160261
:104160008A019B01082319232A233B23C901B80193
:104170001F910F910C9450200F931F9341E050E03A
:1041800060E070E004C0440F551F661F771F8A95DA
:10419000D2F78091130290911402A0911502B09170
:1041A00016028A019B01082719272A273B27C901E4
:1041B000B8011F910F910C9450200F931F93009101
:1041C0001302109114022091150230911602602BF7
:1041D000712B822B932B1F910F910C9450200F93D6
:1041E0001F93009113021091140220911502309137
:1041F000160260237123822393231F910F910C9445
:1042000050200F931F9300911302109114022091DC
:1042100015023091160260277127822793271F917C
:104220000F910C945020089520E1929F800D11244D
:10423000A82FA695A695A695877051E001C0550FA9
:104240008A95EAF785E0A89FD001112420E030E0AC
:1042500070E0F901EA0FFB1FE952FE4F4081CB01EC
:10426000022E02C0969587950A94E2F781709927ED
:10427000819584278523842780832F5F3F4F2530B6
:10428000310539F7089520E1929F800D1124682FA0
:10429000669566956695982F977085E0689FB00142
:1042A000112440E050E080E0FA01E60FF71FE952E8
:1042B000FE4F208130E0092E02C0369527950A94E2
:1042C000E2F721703327042E01C0220F0A94EAF787
:1042D000822B4F5F5F4F4530510531F70895BF92F4
:1042E000CF92DF92EF92FF920F931F93CF93DF93C2
:1042F0008C01C0901702D0901802E0901902F09043
:104300001A028091130290911402A0911502B091AB
:104310001602C82AD92AEA2AFB2ACFE1D0E0D7011F
:10432000C6010C2E04C0B695A795979587950A945B
:10433000D2F780FF07C0BC2EB8018C2F0E94CA0B99
:10434000019719F4219758F7B12C8B2DDF91CF915C
:104350001F910F91FF90EF90DF90CF90BF90089545
:10436000CF93DF93EC010E946F21BE010E94CA0B24
:10437000DF91CF9108951F93CF93DF93EB0190913D
:104380009E01992321F0CB010E94B02113C0882304
:1043900049F0CB010E946F21182F682FCE010E9497
:1043A000142104C0CB010E944321182FBE01812F8C
:1043B0000E94CA0BDF91CF911F91089580911B023B
:1043C000859585958595089580911B028770089540
:1043D00090911B02977081E009F480E0089580912C
:1043E0003F02089590913F02892B80933F020895E8
:1043F000809590913F02892380933F020895109207
:104400003F02089590913E02892B80933E020895C9
:10441000809590913E02892380933E0208951092E8
:104420003E02089590913D02892B80933D020895AC
:10443000809590913D02892380933D0208951092CA
:104440003D02089580911C02089508950C94252240
:1044500090911C02981721F080931C020C94262244
:10446000089580911C02882329F010921C0280E09C
:104470000C9426220895E0911001F0911101809191
:104480003F028083E0911001F091110190818091B1
:104490003E02892B8083E0911001F09111019081FF
:1044A00080913D02892B808380911C02882381F0BA
:1044B000E0911001F09111019081892B808380910E
:1044C0001001909111010E942E2381110E9431222E
:1044D00080911001909111010C945D1608950C9437
:1044E0006E2298E0899F90011124262B20931B02B5
:1044F0000E94762080911B028595859585950C9468
:104500006F2210921B0280E00C946F2220911B02FC
:104510008095822380931B02982F977079F430E066
:10452000482F082E000C550B2417350739F08595B8
:10453000859585950E9497200C948122089580E0AE
:1045400090E00E94F63021E08D3E9E4F09F020E081
:10455000822F089582E090E00C94E830682F82E08A
:1045600090E00C94FC3083E090E00C94E830682FED
:1045700083E090E00C94FC3084E090E00C94E83010
:10458000682F84E090E00C94FC3086E090E00C947E
:10459000E830682F86E090E00C94FC30AB01BC0161
:1045A0008FE090E00C940E31AB01BC0183E190E010
:1045B0000C940E3160E070E0CB010C94D42260E0EA
:1045C00070E0CB010E94CE220C94DA226DEE7EEFD9
:1045D00080E090E00E941A3160E082E090E00E946A
:1045E000FC3060E083E090E00E94FC301092170203
:1045F000109218021092190210921A0260E084E0E0
:1046000090E00E94FC3060E085E090E00E94FC3089
:1046100060E086E090E00E94FC306FEF87E090E081
:104620000E94FC3040E050E0BA0188E090E00E9437
:104630000E3160E08DE090E00E94FC3040E050E000
:10464000BA0188E190E00E940E3160E087E190E0DD
:104650000E94FC300C94DF220C94E622FC0132967E
:1046600080912201882331F08091AC0287FF02C043
:104670009EE101C096E080E0915028F02191222334
:10468000D9F38F5FF9CF08959C01FC0132969FEF1B
:1046900080E04191461789F09F3F19F4411101C014
:1046A000982F8F5F8630A9F79F3F39F0F901E90F06
:1046B000F11D97FDFA95628308950895FC013296E5
:1046C00008962081261301C010823196E817F90759
:1046D000C1F70895262F2695269526952E3168F444
:1046E000FC01E20FF11D677021E030E001C0220FF4
:1046F0006A95EAF78281282B22830895262F269532
:10470000269526952E3170F4FC01E20FF11D67709D
:1047100021E030E001C0220F6A95EAF720958281FE
:1047200028232283089520912201222329F0209119
:10473000AC0227FD0C946A230C944423209122019F
:10474000222329F02091AC0227FD0C947E230C94A7
:104750005E2320912201FC013296222331F08091C8
:10476000AC0287FF02C08EE101C086E0DF011D922E
:104770008A95E9F7089508950C94BB230E94BC2301
:104780008091B302843009F43CC01092410220E4CD
:1047900088E190E00FB6F894A895809360000FBE72
:1047A0002093600080E00E94150980E00E948F093C
:1047B0000E94CC148091420281110AC081E0809352
:1047C0004202809171028170809343020E94FA1329
:1047D0000E94BC2383B7817F846083BF83B78160DD
:1047E00083BF7894889583B78E7F83BF0FB6F89484
:1047F000A8958091600088618093600010926000AD
:104800000FBE089508950895CF930E9402240E9438
:10481000B20E0E940324C0E08C2F0E945D0E892BF3
:1048200029F4CF5FC630C1F780E001C081E0CF91AD
:10483000089508950C9419240E943A1C0E94772828
:104840000E9451160E948F091092420280914302E9
:1048500081110E94C4140E940C140C941A241F92FB
:104860000F920FB60F9211248F939F93AF93BF9324
:1048700080914102811113C08091A8029091A902F8
:10488000A091AA02B091AB024196A11DB11D8093E7
:10489000A8029093A902A093AA02B093AB02BF9181
:1048A000AF919F918F910F900FBE0F901F90189511
:1048B00082E084BD93E095BD9AEF97BD80936E0032
:1048C00008952FB7F8948091A8029091A902A09121
:1048D000AA02B091AB022FBF0895CF92DF92EF9260
:1048E000FF920F931F932FB7F8944091A802509115
:1048F000A9026091AA027091AB022FBF6A017B01ED
:10490000EE24FF248C0120E030E0C016D106E20640
:10491000F30610F4415051099A01281B390BC901C3
:104920001F910F91FF90EF90DF90CF9008957894B2
:104930001F920F920FB60F9211248F939F93AF93F4
:10494000BF938091A8029091A902A091AA02B09170
:10495000AB020196A11DB11D8093A8029093A902FC
:10496000A093AA02B093AB02BF91AF919F918F9198
:104970000F900FBE0F901F90189581E08093E0007C
:1049800080E28093D8001092C9008FE19EE40197E5
:10499000F1F700C0000087E090EBDC018093BC02DF
:1049A0009093BD02A093BE02B093BF029CE088E149
:1049B0000FB6F894A895809360000FBE90936000A6
:1049C000FFCFAF92BF92CF92DF92EF92FF920F9301
:1049D0001F93CF93C0E0CC24C394D12CE82EF12CAC
:1049E0008C2F0E945D0E5C0100E010E09601002E0D
:1049F00002C0220F331F0A94E2F72A213B21232B06
:104A000031F40F5F1F4F0031110581F70AC0602F8D
:104A10007C2F80E00E94AD0BE816F90691F781E04B
:104A200004C0CF5FC630E1F680E0CF911F910F91B7
:104A3000FF90EF90DF90CF90BF90AF900895CF930D
:104A4000C82F8CE20E94E124882321F08C2FCF9183
:104A50000C94E12480E0CF910895CF930E949F228F
:104A6000811102C00E942C23C5E6C15049F00E946A
:104A7000B20E8FE39CE90197F1F700C00000F5CF7B
:104A800089E20E941F2581110FC18AE20E941F2521
:104A900081110E942C2385E00E941F2581110E9414
:104AA000BD240E94AA228093400287E00E941F2515
:104AB0008823A9F18BE10E941F25882351F0809162
:104AC000400281FB222720F991E0922790FB81F997
:104AD0000EC08EE00E941F25882361F08091400265
:104AE00082FB222720F991E0922790FB82F98093A4
:104AF000400215C080E10E941F259091400288234A
:104B000041F093FB222720F981E0822780FB93F973
:104B100004C0892F809580FB90F99093400280918A
:104B200040020E94AE220E94BC2290E09093AD020F
:104B30008093AC0280EE0E941F25882341F0809173
:104B4000AC02982F909590FB80F98093AC0289E39A
:104B50000E941F25882359F08091AC0281FB2227F7
:104B600020F991E0922790FB81F98093AC0282EECC
:104B70000E941F25882359F08091AC0282FB2227D6
:104B800020F991E0922790FB82F98093AC0286EEA7
:104B90000E941F25882359F08091AC0283FB2227B5
:104BA00020F991E0922790FB83F98093AC0283EE89
:104BB0000E941F25882359F08091AC0284FB222794
:104BC00020F991E0922790FB84F98093AC0285E371
:104BD0000E941F25882359F08091AC0285FB222773
:104BE00020F991E0922790FB85F98093AC0281E354
:104BF0000E941F25882359F08091AC0286FB222752
:104C000020F991E0922790FB86F98093AC0281E134
:104C10000E941F25882359F08091AC0287FB222730
:104C200020F991E0922790FB87F98093AC02809164
:104C3000AC020E94C02287E20E941F25C82F8EE18D
:104C40000E941F258111C2608FE10E941F258111E2
:104C5000C46080E20E941F258111C86081E20E9429
:104C60001F258111C06182E20E941F258111C0624F
:104C700083E20E941F258111C06484E20E941F25E7
:104C8000882311F0C06802C0CC2329F08C2F0E9429
:104C9000B7226C2F03C00E94B322682F70E080E01F
:104CA00090E0CF910C941520CF9108958091470208
:104CB00080FF0BC06091150185E0689FB001112451
:104CC00075956795759567952BC081FF09C06091B3
:104CD000150185E0689FB00111247595679520C086
:104CE00082FF07C06091150185E0689FB001112423
:104CF00017C0909146029923D1F060911401961744
:104D000088F72091150185E0289F90011124929F3A
:104D1000A001939F500D112470E0CA010E948530BC
:104D20006038710540F46115710539F002C065E025
:104D300070E0862F08958FE7089581E008958091AF
:104D4000470280FF08C06091130170E07595679578
:104D50007595679521C081FF06C06091130170E0D1
:104D60007595679519C082FF04C06091130170E0CA
:104D700010C0909146029923C1F0609112019617DC
:104D8000A0F780911301899FC001112470E00E9457
:104D900085306038710528F46115710521F0862F82
:104DA00008958FE7089581E0089561E070E0F4CF01
:104DB000803F21F40E945626819504C0813F29F44A
:104DC0000E94562680934B020895823F21F40E9450
:104DD0005626819504C0833F29F40E94562680936D
:104DE0004A020895893F19F40E949F2605C08A3F10
:104DF00031F40E949F26819580934C0208958B3F49
:104E000021F40E949F26819504C08C3F29F40E94C2
:104E10009F2680934D020895843F21F4809149029A
:104E2000816017C0853F21F480914902826011C0E2
:104E3000863F21F48091490284600BC0873F21F4B2
:104E400080914902886005C0883F31F48091490211
:104E500080618093490208958D3F21F4809147023B
:104E600081600BC08E3F21F480914702826005C0B3
:104E70008F3F29F480914702846080934702089510
:104E8000803F39F480914B0287FF6CC010924B0237
:104E900069C0813F29F480914B021816BCF362C0AF
:104EA00090914A02823F29F497FF5CC010924A0217
:104EB00059C0833F19F41916CCF354C0893F41F40B
:104EC00080914C0218160CF04DC010924C024AC052
:104ED0008A3F29F480914C0287FF44C0F6CF8B3F74
:104EE00039F480914D0287FF3DC010924D023AC0C7
:104EF0008C3F29F480914D021816BCF333C0843FD7
:104F000021F4809149028E7F17C0853F21F4809162
:104F100049028D7F11C0863F21F4809149028B7F29
:104F20000BC0873F21F480914902877F05C0883FED
:104F300031F4809149028F7E8093490213C08D3FE6
:104F400021F4809147028E7F0BC08E3F21F4809127
:104F500047028D7F05C08F3F29F4809147028B7FE8
:104F60008093470280914A0281110EC080914B02CA
:104F700081110AC080914C02811106C080914D02BE
:104F8000811102C010924602089588E492E00E94C6
:104F900077160E94612490934502809344020895FD
:104FA0001F93CF93DF9380914402909145020E941A
:104FB0006D24AC0190914602992321F020911601B5
:104FC00030E006C0209117018AE0289F900111244B
:104FD0004217530708F47BC080914A02C0914B02EC
:104FE000D0914C0210914D02811107C0C1116BC0CC
:104FF000D11169C0111167C06AC09F3F19F09F5F4E
:1050000090934602181624F40E94562680934A0272
:1050100080914A0287FF05C00E94562681958093A1
:105020004A021C1624F40E94562680934B0280915B
:105030004B0287FF05C00E945626819580934B0244
:1050400030914A023323E1F020914B022223C1F038
:1050500045EB3403C0011124892F990F990B009758
:1050600009F481E080934A0235EB2303C001112447
:10507000892F990F990B009709F481E080934B02D7
:105080001D1624F40E949F2680934C0280914C02AE
:1050900087FF05C00E949F26819580934C021116C0
:1050A00024F40E949F2680934D0280914D0287FF39
:1050B00005C00E949F26819580934D02DF91CF917C
:1050C0001F910C94C5279F3F09F099CFA1CFDF9185
:1050D000CF911F910895E8E4F2E086E0DF011D9290
:1050E0008A95E9F7109246021092470208950E94AD
:1050F0009F22811102C00E942C230E94C52280930E
:10510000AE02282F269530E02630310524F081703C
:105110008A608093AE028091AE0280FF02C08695C5
:1051200001C080E00C9415092091AE02822F869573
:10513000482F50E04530510544F48F5F982F990F68
:10514000822F8170892B8093AE028091AE028160A4
:105150008093AE020E94C9228091AE0286950C9483
:1051600015098091AE02982F969591F09158990F5C
:105170008170892B8093AE028E7F91E009F490E0DC
:105180008091AE0290FB80F98093AE020E94C9220A
:105190008091AE0286950C9415098091AE0280FD37
:1051A00011C081608093AE02813019F483E0809356
:1051B000AE028091AE020E94C9228091AE02869515
:1051C0000C94150908958091AE0280FF08C08E7F6F
:1051D0008093AE020E94C92280E00C9415090895C4
:1051E0008091AE0280FD0C94E3280C94CD28909120
:1051F000AE02892F86958F5F8F779170863028F465
:10520000880F892B8093AE0202C09093AE028091EA
:10521000AE028E7F91E009F490E08091AE0290FBA7
:1052200080F98093AE020E94C9228091AE028695D9
:105230000C941509863008F085E0880F9091AE0235
:105240009170892B8093AE028E7F91E009F490E0FB
:105250008091AE0290FB80F98093AE020E94C92239
:105260008091AE0286950C94150980916E02089586
:105270000F931F93CF93DF9300D01F92CDB7DEB76C
:105280008C010E94A82B823011F0843021F584E03B
:1052900089831B830A8382E08093E9008FEF9091DA
:1052A000E800815095FD06C095ED9A95F1F7000054
:1052B0008111F5CF8091E80085FF0DC040E050E0FE
:1052C00063E070E0CE0101960E94C52B8091E8005A
:1052D0008E778093E8000F900F900F90DF91CF9121
:1052E0001F910F910895CF93DF9300D01F92CDB7F8
:1052F000DEB72091B302243031F523E029838058B2
:1053000091099B838A8382E08093E9008FEF9091DB
:10531000E800815095FD06C095ED9A95F1F70000E3
:105320008111F5CF8091E80085FF0DC040E050E08D
:1053300063E070E0CE0101960E94C52B8091E800E9
:105340008E778093E8000F900F900F90DF91CF91B0
:105350000895CF93DF93EC010E94A82B823011F0C7
:105360008430F9F482E08093E9009FEF8091E800B7
:10537000915085FD06C085ED8A95F1F700009111E9
:10538000F5CF8091E80085FF0CC040E050E066E07A
:1053900070E0CE010E94C52B8091E8008E7780934B
:1053A000E800DF91CF910895CF93DF93EC010E9445
:1053B000A82B823011F08430D9F580912201882306
:1053C00039F08091AC0287FF03C060E282E002C046
:1053D00068E081E08093E9008FEF9091E8008150D0
:1053E00095FD06C095ED9A95F1F700008111F5CF76
:1053F0008091E80085FF1CC080912201811105C0C9
:1054000040E050E068E070E003C070E040E050E051
:10541000CE010E94C52B8091E8008E778093E80032
:1054200080E2FE01AEE4B2E001900D928A95E1F7D0
:10543000DF91CF9108958091B202811109C00E943D
:105440005A2D0E94B72D8091E20084608093E20083
:1054500008951092B2020895089508950C941C24A2
:1054600042E061EC81E00E94D42C42E261EC82E0F7
:105470000C94D42C8091B502833009F460C030F4D0
:10548000813071F0823009F499C008958A3009F4AE
:1054900085C08B3009F46BC0893009F0A7C020C0EB
:1054A0008091B402813A09F0A1C08091E800877F21
:1054B0008093E8008091B8029091B902892B21F481
:1054C00060E28EE492E003C060E080E090E070E093
:1054D0000E94102C8091E8008B778093E80008955B
:1054E0008091B402813209F081C08091B80290911C
:1054F000B902029708F07AC08091E800877F809314
:10550000E8008091E80082FD05C08091B30281111E
:10551000F8CF6CC02091F3008091F20090E0922BC4
:10552000029729F48091F1008B7F813021F48091E2
:10553000F10080936E028091E8008B7753C08091D8
:10554000B402813A09F052C08091B8029091B90238
:10555000892B09F04BC08091E800877F8093E80099
:105560008091E80080FFFCCF8091220136C08091BD
:10557000B4028132D9F58091B8029091B902892B99
:10558000A9F58091E800877F8093E8000E94092DAB
:105590008091B602809322010C943A1C8091B4024F
:1055A000813221F58091E800877F8093E8000E9496
:1055B000092D8091B70280936F0208958091B40203
:1055C000813AA1F48091E800877F8093E800809180
:1055D000E80080FFFCCF80916F028093F100809102
:1055E000E8008E778093E8000C94092D089584B725
:1055F000877F84BF0FB6F894A8958091600088617A
:1056000080936000109260000FBE80E8809361007C
:10561000109261000E94BF160E945A2D0E94B72D61
:105620008091E20084608093E20078940E9446308A
:105630000E94C71688E191E00E944C168091B30247
:10564000853069F40E94BE238091B1028823B1F3B2
:105650000E940424882391F30E94AF2BEFCF0E9475
:10566000D3160E94CF14EACF0C94362B292F332760
:1056700023303105C9F064F42130310581F0223046
:10568000310509F04CC08BE390E029E83FE04BC0C6
:105690002132310521F12232310589F140C082E108
:1056A00090E024EC3FE03FC099278130910571F0F4
:1056B0002CF4892BA1F5E5E8FFE00DC082309105BF
:1056C00041F0039761F5E1E6FFE005C0E5E7FFE0A3
:1056D00002C0E7E6FFE0849190E09F0124C06115DD
:1056E000710541F061307105D1F489E090E024EB5F
:1056F0003FE019C089E090E02BE93FE014C061155C
:10570000710541F06130710551F480EC90E026EDB7
:105710003FE009C080E490E026E930E104C080E089
:1057200090E020E030E0FA0131832083089508956D
:10573000CF93C82F0E94972BC0937002CF910895EA
:105740008091B302843011F081E0089582E00895E1
:1057500080917002811102C00C94A02B089580E109
:1057600089BD82E189BD09B400FEFDCF8091D800DA
:105770008F7D8093D8008091E00082608093E0006C
:105780008091E00081FDFCCF0895CF92DF92EF92EF
:10579000FF920F931F93CF93DF93EC018B016A016C
:1057A0000E94282D811133C0C114D10439F0F601B3
:1057B00080819181081B190BC80FD91FE12CF12C96
:1057C0000115110519F18091E80085FD16C0809141
:1057D000E8008E778093E800C114D10449F0F60107
:1057E00080819181E80EF91EF182E08285E00FC090
:1057F0000E94282D882321F30AC089918093F1000B
:1058000001501109FFEFEF1AFF0ADACF80E0DF91B4
:10581000CF911F910F91FF90EF90DF90CF9008955F
:105820002091BA023091BB022617370748F0611564
:10583000710539F42091E8002E772093E80001C02B
:10584000B90140E061157105A9F12091B30222234D
:1058500009F443C0253009F442C02091E80023FD3B
:1058600040C02091E80022FD32C02091E80020FFD6
:10587000E9CF4091F3002091F20030E0342BFC019D
:10588000CF016115710559F02830310540F481913F
:105890008093F100615071092F5F3F4FF1CF41E0DC
:1058A0002830310509F040E02091E8002E77209360
:1058B000E800C8CF4111C9CF0AC08091B302882344
:1058C00061F0853061F08091E80083FD0AC080912D
:1058D000E80082FFF2CF80E0089582E0089583E03F
:1058E000089581E008952091BA023091BB022617F5
:1058F000370748F06115710539F42091E8002E77DB
:105900002093E80001C0B901FC0120E06115710598
:1059100091F18091B302882309F440C0853009F4E5
:105920003FC08091E80083FD3DC08091E80082FD8A
:105930002FC08091E80080FFE9CF2091F300809193
:10594000F20090E0922B6115710559F088309105B5
:1059500040F424912093F100319661507109019631
:10596000F2CF21E0089709F020E08091E8008E77DF
:105970008093E800CBCF2111CCCF0AC08091B30235
:10598000882361F0853061F08091E80083FD0AC0D2
:105990008091E80082FFF2CF80E0089582E00895D0
:1059A00083E0089581E00895982F973058F59093FB
:1059B000E900981739F07091EC002091ED005091BA
:1059C000F00003C0242F762F50E021FF19C0309142
:1059D000EB003E7F3093EB003091ED003D7F309344
:1059E000ED003091EB0031603093EB007093EC00F0
:1059F0002093ED005093F0002091EE0027FF07C0A8
:105A00009F5FD3CF8F708093E90081E0089580E09D
:105A100008958091B40287FF11C08091E80082FD53
:105A200005C08091B3028111F8CF11C08091E800C8
:105A30008B770BC08091B302882349F08091E800F6
:105A400080FFF8CF8091E8008E778093E80008957A
:105A50002091E4003091E50095E64091EC00842F20
:105A6000817040FF22C08091E80080FD1CC08091C1
:105A7000B302882391F0853091F08091EB0085FD91
:105A800010C04091E4005091E5004217530729F3FC
:105A90009A01915011F784E0089582E0089583E01F
:105AA000089581E0089580E008954091E80042FF64
:105AB000DECF08950E94C82D0E94D02DE0EEF0E0C8
:105AC000808181608083E8EDF0E080818F77808342
:105AD00019BCA7EDB0E08C918E7F8C9380818F7E76
